S01300005374726573732062616C6C2E73726563D2
S11300000C942A000C943C000C943C000C943C008E
S11300100C943C000C943C000C943C000C943C006C
S11300200C943C000C943C000C943C000C943C005C
S11300300C943C000C943C000C943C000C943C004C
S11300400C943C000C943C000C943C000C943C003C
S11300500C943C0011241FBECFE5D8E0DEBFCDBF19
S113006020E0A0E6B0E001C01D92A236B207E1F79D
S11300700E949D000C94BD000C9400008CED9BE04C
S11300809DBD8CBD1FBC83E08EBD21E04CED5BE0CB
S113009004C0C89902C05DBD4CBD88B796B382FB4D
S11300A0882780F9821719F091709213F2CF1EBC41
S11300B088B7846088BF08958CED9BE09DBD8CBD9E
S11300C01FBC83E08EBD21E00FC086B399B381705D
S11300D0821751F09170921739F00E943E001EBCB5
S11300E088B7846088BF089508B602FEEECF1EBCB0
S11300F088B7846088BF08958CED9BE09DBD8CBD5E
S11301001FBC83E08EBD0BC0C89B09C01092610068
S1130110109260001EBC88B7846088BF089508B63A
S113012002FEF2CF1EBC88B7846088BF81E090E0F5
S113013090936100809360000895D098D89AB898FD
S1130140C09A889A06C0C89904C0909A0E943E003A
S11301509098B09BF8CF0EC0C8990CC00E947C0048
S11301608091600090916100019721F4909A0E941F
S11101705C009098B099F0CFECCFF894FFCFDC
S9030000FC
